:020000040800F2
:1000000000500020B50A0008290A0008310A00083B
:10001000390A0008410A0008490A000800000000E7
:10002000000000000000000000000000510A00086D
:100030005D0A000800000000690A0008750A00084F
:10004000FD0A0008FD0A0008FD0A0008FD0A000874
:10005000FD0A0008FD0A0008FD0A0008FD0A000864
:10006000FD0A0008FD0A0008FD0A0008FD0A000854
:10007000FD0A0008FD0A0008FD0A0008FD0A000844
:10008000FD0A0008FD0A0008FD0A0008FD0A000834
:10009000810A0008950A0008FD0A0008E906000820
:1000A000FD0A0008FD0A0008FD0A0008FD0A000814
:1000B000E1070008FD0A0008FD0A0008FD0A000823
:1000C000FD0A0008FD0A0008FD0A0008FD0A0008F4
:1000D000FD0A0008FD0A0008FD0A0008FD0A0008E4
:1000E000FD0A0008FD0A0008FD0A000800000000E3
:1000F0000000000000000000000000000000000000
:0C01000000000000000000005FF808F1A3
:10010C0010B5054C237833B9044B13B10448AFF345
:10011C0000800123237010BD0C00002000000000A3
:10012C00D035000808B5034B1BB103490348AFF3A6
:10013C00008008BD0000000010000020D035000831
:10014C0080B582B000AF78600A4B0B4A0121786809
:10015C0001F02DF803461A46084B1A70064B1B6922
:10016C00032B02D1064B01221A7000BF0837BD4683
:10017C0080BD00BF240100200001002031010020BF
:10018C003001002080B500AF00F0B4FC00F0A6F800
:10019C0000F02CFA00F03CF900F0DAF900F0E4F889
:1001AC00424800F0F1FE1021404801F021F9404B8B
:1001BC0003221A613E4B00229A603D4B0022DA600A
:1001CC003B4B4FF482721A603A4802F06BFA0021F2
:1001DC00394802F011FB00221021384801F0F9FDDA
:1001EC0001222021354801F0F4FD00F091FA4FF482
:1001FC00FA6000F0E1FC324B1B78002B4ED0314BF7
:10020C001A78314B1B789A420BD12E4B5A782E4BC5
:10021C005B789A4205D12B4B9A782B4B9B789A4260
:10022C0021D0284B1B78002B0FD0264B5B78012B51
:10023C0005D1244B9B78184600F07CFA07E0214B43
:10024C009B78184600F09EFA01E000F061FA1D4B15
:10025C001A781D4B1A701B4B5A781B4B5A70194B42
:10026C009A78194B9A70164B00221A70174B1B88F0
:10027C009BB21B0A9BB2DAB2154B1A70134B1B883C
:10028C009BB2DAB2124B5A70124B114A084907480A
:10029C0000F0BEFE03461A460F4B1A700E4B1B782D
:1002AC00002BA8D000F034FAA5E700BF28000020EE
:1002BC00E8000020980000205000002000080140B9
:1002CC00300100202401002034010020E400002033
:1002DC001C0100202C0100203101002080B590B0C1
:1002EC0000AF07F1180328220021184603F03DF94E
:1002FC003B1D00221A605A609A60DA601A61012371
:10030C00BB614FF48033FB6100233B620123BB6272
:10031C0002237B634FF48033BB634FF4E013FB6326
:10032C0007F11803184601F08FFD0346002B01D08E
:10033C0000F074FA0F237B600223BB600023FB6088
:10034C004FF480633B6100237B613B1D0221184607
:10035C0001F0FCFF0346002B01D000F05FFA00BF58
:10036C004037BD4680BD000080B58AB000AF254B3C
:10037C00254A1A60234B12225A60224B00229A60A3
:10038C00204B0022DA601F4B4FF480321A611D4B58
:10039C0000225A611B4B00221A761A4B00225A7605
:1003AC00184B00229A76174B0022DA76154B002256
:1003BC001A77144B00225A77124800F021FC03469E
:1003CC00002B01D000F02AFA01233B620A237B6147
:1003DC0001233B614FF4DC633B6000237B600B4BE0
:1003EC00BB600023FB600023BB610123FB61002386
:1003FC007B623B461946034800F0FDFC00BF2837E2
:10040C00BD4680BD2800002000640040E0FF0100D4
:10041C0080B596B000AF07F1480300221A605A600D
:10042C009A60DA6007F1400300221A605A6007F103
:10043C00240300221A605A609A60DA601A615A61C9
:10044C009A613B1D20220021184603F08EF83E4B8A
:10045C003E4A1A603C4B47225A603B4B00229A6042
:10046C00394B40F2E732DA60374B00221A61364BD7
:10047C0000225A61344B00229A61334802F0C2F8D0
:10048C000346002B01D000F0C9F94FF48053BB6434
:10049C0007F1480319462C4802F002FC0346002BD6
:1004AC0001D000F0BBF9284802F04EF90346002BAE
:1004BC0001D000F0B3F900233B6400237B6407F107
:1004CC0040031946204802F08FFF0346002B01D051
:1004DC0000F0A4F960237B620023BB620023FB6263
:1004EC0000233B6300237B630023BB630023FB637C
:1004FC0007F1240300221946134802F00FFB0346B0
:10050C00002B01D000F08AF900237B600023BB6034
:10051C000023FB6000233B6100237B614FF40053FD
:10052C00BB6100233B623B1D1946074802F0BAFF32
:10053C000346002B01D000F071F9034800F03AFAA1
:10054C0000BF5837BD4680BD50000020002C014034
:10055C0080B586B000AF07F1080300221A605A601C
:10056C009A60DA603B4600221A605A601E4B4FF0CC
:10057C0080421A601C4B41F61F425A601A4B0022F3
:10058C009A60194B42F20F72DA60174B00221A6113
:10059C00154B00229A61144802F034F80346002BE4
:1005AC0001D000F03BF94FF48053BB6007F1080316
:1005BC0019460D4802F074FB0346002B01D000F0E5
:1005CC002DF900233B6000237B603B46194606480F
:1005DC0002F00AFF0346002B01D000F01FF900BF08
:1005EC001837BD4680BD00BF9800002080B588B08C
:1005FC0000AF07F1100300221A605A609A60DA60AB
:10060C00324B9B69314A43F0100393612F4B9B692A
:10061C0003F01003FB60FB682C4B9B692B4A43F0E7
:10062C0020039361294B9B6903F02003BB60BB68DB
:10063C00264B9B69254A43F004039361234B9B692A
:10064C0003F004037B607B6800224FF400512048C8
:10065C0001F0BFFB002230211E4801F0BAFB4FF421
:10066C0000533B6101237B610023BB610223FB61CF
:10067C0007F110031946164801F010FA30233B61BC
:10068C0001237B610023BB610223FB6107F1100393
:10069C001946104801F002FA4FF400733B610E4BFF
:1006AC007B610223BB6107F110031946094801F075
:1006BC00F5F900220021172001F0B9F9172001F0FB
:1006CC00D2F900BF2037BD4680BD00BF00100240EC
:1006DC0000100140000801400000111080B500AF6F
:1006EC004FF4007001F08EFB4FF40071064801F0DE
:1006FC0059FB0346012B04D1044B1B680133034AFD
:10070C00136000BF80BD00BF00080140E000002066
:10071C0080B500AF054B1B6800225A6300221021E4
:10072C00034801F056FB00BF80BD00BF5000002005
:10073C000008014080B582B000AF0346FB710F4B3F
:10074C001B6800225A63002210210D4801F041FB66
:10075C00012220210A4801F03CFB0122102108480B
:10076C0001F037FBFB79642203FB02F2034B1B689D
:10077C005A6300BF0837BD4680BD00BF5000002043
:10078C000008014080B582B000AF0346FB710F4BEF
:10079C001B6800225A63002210210D4801F019FB3E
:1007AC00002220210A4801F014FB012210210848E4
:1007BC0001F00FFBFB79642203FB02F2034B1B6875
:1007CC005A6300BF0837BD4680BD00BF50000020F3
:1007DC000008014080B500AF0C4802F0AFF80C4B9C
:1007EC001A6813461B019B1A9B001A46094BA3FB64
:1007FC000213D21A520813445B099AB2064B1A80A0
:10080C00034B00221A6000BF80BD00BF980000207F
:10081C00E00000206DC1166CE400002080B400AF35
:10082C0072B600BF00BFFDE780B485B000AF154BBA
:10083C009B69144A43F001039361124B9B6903F0CB
:10084C000103BB60BB680F4BDB690E4A43F080535E
:10085C00D3610C4BDB6903F080537B607B680A4BE4
:10086C005B68FB60FB6823F0E063FB60FB6843F0B4
:10087C000073FB60044AFB68536000BF1437BD462D
:10088C0080BC7047001002400000014080B588B069
:10089C0000AF786007F1100300221A605A609A606A
:1008AC00DA607B681B68244A934241D1234BDB6995
:1008BC00224A43F00073D361204BDB6903F00073D1
:1008CC00FB60FB681D4B9B691C4A43F0040393615E
:1008DC001A4B9B6903F00403BB60BB684FF40063C5
:1008EC003B6100237B610023BB6107F110031946B8
:1008FC00134801F0D3F84FF480533B6102237B6122
:10090C000323FB6107F1100319460D4801F0C6F8EB
:10091C0000220021142001F08AF8142001F0A3F821
:10092C0000220021152001F082F8152001F09BF81F
:10093C0000BF2037BD4680BD00640040001002405F
:10094C000008014080B584B000AF78607B681B68FC
:10095C00164A93420CD1164B9B69154A43F400631B
:10096C009361134B9B6903F40063FB60FB6818E015
:10097C007B681B68B3F1804F13D10D4BDB690C4ABC
:10098C0043F00103D3610A4BDB6903F00103BB6045
:10099C00BB68002200211C2001F049F81C2001F04A
:1009AC0062F800BF1037BD4680BD00BF002C01406F
:1009BC000010024080B588B000AF786007F11003DA
:1009CC0000221A605A609A60DA607B681B68104AD1
:1009DC00934218D10F4B9B690E4A43F00403936169
:1009EC000C4B9B6903F00403FB60FB684FF48073B2
:1009FC003B6102237B610223FB6107F11003194663
:100A0C00054801F04BF800BF2037BD4680BD00BF44
:100A1C00002C0140001002400008014080B400AFDF
:100A2C0000BFFDE780B400AF00BFFDE780B400AFAE
:100A3C0000BFFDE780B400AF00BFFDE780B400AF9E
:100A4C0000BFFDE780B400AF00BFBD4680BC70475F
:100A5C0080B400AF00BFBD4680BC704780B400AF0F
:100A6C0000BFBD4680BC704780B500AF00F088F871
:100A7C0000BF80BD80B500AF024800F0DEFC00BFB7
:100A8C0080BD00BF2800002080B500AF024800F0F8
:100A9C00D4FC00BF80BD00BF2800002080B400AF94
:100AAC0000BFBD4680BC7047FFF7F8FF0B480C49F0
:100ABC000C4A002302E0D458C4500433C4188C42AE
:100ACC00F9D3094A094C002301E013600432A24215
:100ADC00FBD302F053FDFFF755FB704700000020DD
:100AEC000C000020143600080C0000203C010020F3
:100AFC00FEE7000080B500AF084B1B68074A43F0C7
:100B0C0010031360032000F087FF0F2000F008F89B
:100B1C00FFF78AFE0023184680BD00BF002002406C
:100B2C0080B582B000AF7860124B1A68124B1B78FC
:100B3C0019464FF47A73B3FBF1F3B2FBF3F3184697
:100B4C0000F09FFF0346002B01D001230EE07B68D1
:100B5C000F2B0AD8002279684FF0FF3000F067FFA6
:100B6C00064A7B681360002300E00123184608370F
:100B7C00BD4680BD000000200800002004000020BD
:100B8C0080B400AF054B1B781A46054B1B68134409
:100B9C00034A136000BFBD4680BC704708000020AC
:100BAC003801002080B400AF024B1B681846BD46CC
:100BBC0080BC70473801002080B584B000AF7860ED
:100BCC00FFF7F0FFB8607B68FB60FB68B3F1FF3F99
:100BDC0005D00A4B1B781A46FB681344FB6000BF18
:100BEC00FFF7E0FF0246BB68D31AFA689A42F7D8BF
:100BFC0000BF00BF1037BD4680BD00BF08000020FD
:100C0C0080B584B000AF78607B68002B01D10123E4
:100C1C00EDE07B6893F82030DBB2002B02D17868D2
:100C2C00FFF734FE7B681B681A687B681B6842F010
:100C3C0001021A60FFF7B6FFF86012E0FFF7B2FF8F
:100C4C000246FB68D31A0A2B0BD97B685B6A43F408
:100C5C0000327B685A627B68052283F820200123CE
:100C6C00C5E07B681B685B6803F00103002BE5D0D3
:100C7C007B681B681A687B681B6822F002021A608A
:100C8C00FFF790FFF86012E0FFF78CFF0246FB685D
:100C9C00D31A0A2B0BD97B685B6A43F400327B684E
:100CAC005A627B68052283F8202001239FE07B6831
:100CBC001B685B6803F00203002BE5D17B681B7E8D
:100CCC00012B08D17B681B681A687B681B6842F093
:100CDC0080021A6007E07B681B681A687B681B68D7
:100CEC0022F080021A607B685B7E012B08D17B6846
:100CFC001B681A687B681B6842F040021A6007E0A8
:100D0C007B681B681A687B681B6822F040021A60BB
:100D1C007B689B7E012B08D17B681B681A687B68FB
:100D2C001B6842F020021A6007E07B681B681A6897
:100D3C007B681B6822F020021A607B68DB7E012B2B
:100D4C0008D17B681B681A687B681B6822F010024C
:100D5C001A6007E07B681B681A687B681B6842F0A6
:100D6C0010021A607B681B7F012B08D17B681B6803
:100D7C001A687B681B6842F008021A6007E07B68FF
:100D8C001B681A687B681B6822F008021A607B6873
:100D9C005B7F012B08D17B681B681A687B681B681A
:100DAC0042F004021A6007E07B681B681A687B68D3
:100DBC001B6822F004021A607B689A687B68DB6807
:100DCC001A437B681B691A437B685B6942EA03011F
:100DDC007B685B685A1E7B681B680A43DA617B6818
:100DEC0000225A627B68012283F8202000231846D7
:100DFC001037BD4680BD80B487B000AF78603960D5
:100E0C007B681B687B617B6893F82030FB74FB7CF0
:100E1C00012B03D0FB7C022B40F0AA807B69D3F81A
:100E2C00003243F001027B69C3F800223B685B6926
:100E3C0003F01F03012202FA03F3FB607B69D3F872
:100E4C001C22FB68DB431A407B69C3F81C223B68FD
:100E5C00DB69002B23D17B69D3F80C22FB68DB43C5
:100E6C001A407B69C3F80C223B68DB6819043B68A9
:100E7C005B689BB23A68526919437B69483243F804
:100E8C0032103B689B6819043B681B689AB23B683C
:100E9C005B690A4379694833DB000B445A603B6851
:100EAC00DB69012B22D17B69D3F80C22FB681A4336
:100EBC007B69C3F80C223B681B6819043B685B68B0
:100ECC009BB23A68526919437B69483243F8321035
:100EDC003B689B6819043B68DB689AB23B685B69AA
:100EEC000A4379694833DB000B445A603B689B69C1
:100EFC00002B09D17B69D3F80422FB68DB431A4031
:100F0C007B69C3F8042207E07B69D3F80422FB68F1
:100F1C001A437B69C3F804223B681B69002B09D177
:100F2C007B69D3F81422FB68DB431A407B69C3F856
:100F3C00142207E07B69D3F81422FB681A437B69FF
:100F4C00C3F814223B681B6A012B07D17B69D3F8C9
:100F5C001C22FB681A437B69C3F81C227B69D3F8FB
:100F6C00003223F001027B69C3F80022002306E063
:100F7C007B685B6A43F480227B685A6201231846C3
:100F8C001C37BD4680BC704780B584B000AF78601C
:100F9C007B6893F82030DBB2012B2ED17B680222C8
:100FAC0083F820207B681B681A687B681B6822F01A
:100FBC0001021A60FFF7F6FDF86012E0FFF7F2FD90
:100FCC000246FB68D31A0A2B0BD97B685B6A43F485
:100FDC0000327B685A627B68052283F8202001234B
:100FEC0012E07B681B685B6803F00103002BE5D102
:100FFC007B6800225A62002306E07B685B6A43F43C
:10100C0000227B685A62012318461037BD4680BD0A
:10101C0080B489B000AFF860B9607A603B60FB685F
:10102C0093F82030FB77FB681B689B68BB61FB7FE8
:10103C00012B03D0FB7F022B40F0AD80BB6903F08A
:10104C008063002B0AD1BB6903F00063002B05D130
:10105C00BB6903F08053002B00F09580BB691B0E1D
:10106C0003F003037B6101227B699A403B681A60A1
:10107C00BB689B68002B0DD1BB681B685A05BB680D
:10108C00DB68F96809681A437B6918331B010B4448
:10109C001A600FE0BB685B68DA00BB689B681A4398
:1010AC00BB68DB68F96809681A437B6918331B0154
:1010BC000B441A60FB681968BB681A697B691833A2
:1010CC001B010B4404331A60BB681B7D012B11D12F
:1010DC00FB681A687B6918331B01134404331B68C3
:1010EC00FA68116843F480727B6918331B010B4456
:1010FC0004331A607B6807331B781A067B68063347
:10110C001B781B041A437B6805331B781B021343A3
:10111C007A68043212781046FA68116843EA0002C1
:10112C007B691B010B4403F5C6731A607B680333A0
:10113C001B781A067B6802331B781B041A437B68E6
:10114C0001331B781B0213437A6812781046FA6835
:10115C00116843EA00027B691B010B4403F5C4735D
:10116C001A60FB681A687B6918331B0113441B68EF
:10117C00FA68116843F001027B6918331B010B44B8
:10118C001A6000230EE0FB685B6A43F40012FB68F4
:10119C005A62012306E0FB685B6A43F48022FB6819
:1011AC005A62012318462437BD4680BC704780B470
:1011BC0087B000AFF860B9607A603B60FB6893F869
:1011CC002030FB75FB7D012B03D0FB7D022B40F007
:1011DC000381BB68002B0ED1FB681B68DB6803F036
:1011EC000303002B16D1FB685B6A43F40012FB6807
:1011FC005A620123F7E0FB681B681B6903F00303C9
:10120C00002B07D1FB685B6A43F40012FB685A623F
:10121C000123E8E0FB681A68BB681B331B0113440D
:10122C001B6803F004027B689A607B689B68002B48
:10123C000CD1FB681A68BB681B331B0113441B6879
:10124C005B0DC3F30A027B681A600BE0FB681A683B
:10125C00BB681B331B0113441B68DB0823F0604283
:10126C007B685A60FB681A68BB681B331B0113440C
:10127C001B6803F002027B68DA60FB681A68BB68C3
:10128C001B331B01134404331B6803F00803002BAE
:10129C0003D07B6808221A610BE0FB681A68BB68F4
:1012AC001B331B01134404331B6803F00F027B68D0
:1012BC001A61FB681A68BB681B331B0113440433A7
:1012CC001B681B0ADAB27B689A61FB681A68BB68F8
:1012DC001B331B01134404331B681B0C9AB27B6831
:1012EC005A61FB681A68BB681B01134403F5DC7375
:1012FC001B68DAB23B681A70FB681A68BB681B0182
:10130C00134403F5DC731B681A0A3B680133D2B231
:10131C001A70FB681A68BB681B01134403F5DC7375
:10132C001B681A0C3B680233D2B21A70FB681A683D
:10133C00BB681B01134403F5DC731B681A0E3B6876
:10134C000333D2B21A70FB681A68BB681B011344D2
:10135C0003F5DE731A683B680433D2B21A70FB686B
:10136C001A68BB681B01134403F5DE731B681A0A69
:10137C003B680533D2B21A70FB681A68BB681B0154
:10138C00134403F5DE731B681A0C3B680633D2B2A8
:10139C001A70FB681A68BB681B01134403F5DE73F3
:1013AC001B681A0E3B680733D2B21A70BB68002B4D
:1013BC0008D1FB681B68DA68FB681B6842F02002E6
:1013CC00DA6007E0FB681B681A69FB681B6842F06F
:1013DC0020021A61002306E0FB685B6A43F480225A
:1013EC00FB685A62012318461C37BD4680BC704707
:1013FC0080B485B000AF786039607B6893F820309A
:10140C00FB73FB7B012B02D0FB7B022B09D17B688E
:10141C001B6859697B681B683A680A435A61002348
:10142C0006E07B685B6A43F480227B685A62012386
:10143C0018461437BD4680BC704780B58AB000AFE3
:10144C00786000237B627B681B685B693B627B680E
:10145C001B685B68FB617B681B689B68BB617B6876
:10146C001B68DB687B617B681B681B693B617B6865
:10147C001B689B69FB603B6A03F00103002B7CD06B
:10148C00BB6903F00103002B23D07B681B6801228E
:10149C009A60BB6903F00203002B03D0786800F05C
:1014AC0083F916E0BB6903F00403002B04D07B6ABC
:1014BC0043F400637B620CE0BB6903F00803002B70
:1014CC0004D07B6A43F480537B6202E0786800F0BE
:1014DC0086F9BB6903F48073002B24D07B681B68EE
:1014EC004FF480729A60BB6903F40073002B03D035
:1014FC00786800F062F916E0BB6903F48063002B96
:10150C0004D07B6A43F400537B620CE0BB6903F4A8
:10151C000063002B04D07B6A43F480437B6202E0BF
:10152C00786800F065F9BB6903F48033002B24D094
:10153C007B681B684FF480329A60BB6903F40033FC
:10154C00002B03D0786800F041F916E0BB6903F476
:10155C008023002B04D07B6A43F400437B620CE0B5
:10156C00BB6903F40023002B04D07B6A43F4803363
:10157C007B6202E0786800F044F93B6A03F00803F0
:10158C00002B0CD07B6903F01003002B07D07B6A77
:10159C0043F400737B627B681B681022DA603B6A41
:1015AC0003F00403002B0BD07B6903F00803002B22
:1015BC0006D07B681B680822DA60786800F033F983
:1015CC003B6A03F00203002B09D07B681B68DB68C5
:1015DC0003F00303002B02D0786800F01BF93B6A80
:1015EC0003F04003002B0CD03B6903F01003002BDD
:1015FC0007D07B6A43F480637B627B681B68102294
:10160C001A613B6A03F02003002B0BD03B6903F0FB
:10161C000803002B06D07B681B6808221A617868C7
:10162C0000F00AF93B6A03F01003002B09D07B6829
:10163C001B681B6903F00303002B02D07868FEF7CC
:10164C007FFD3B6A03F40033002B0BD0FB6903F0E6
:10165C001003002B06D07B681B6810225A60786838
:10166C0000F0F3F83B6A03F48033002B0BD0FB69DA
:10167C0003F00803002B06D07B681B6808225A6015
:10168C00786800F0EBF83B6A03F40043002B7BD046
:10169C00FB6903F00403002B72D03B6A03F48073E4
:1016AC00002B08D0FB6803F00103002B03D07B6AEE
:1016BC0043F001037B623B6A03F40073002B08D0F8
:1016CC00FB6803F00203002B03D07B6A43F0020398
:1016DC007B623B6A03F48063002B08D0FB6803F049
:1016EC000403002B03D07B6A43F004037B623B6A48
:1016FC0003F40063002B43D0FB6803F07003002B52
:10170C003ED0FB6803F07003602B2BD0602B2ED8DF
:10171C00502B22D0502B2AD8402B19D0402B26D816
:10172C00302B10D0302B22D8102B02D0202B05D0F0
:10173C001DE07B6A43F008037B6219E07B6A43F08F
:10174C0010037B6214E07B6A43F020037B620FE0A2
:10175C007B6A43F040037B620AE07B6A43F08003C0
:10176C007B6205E07B6A43F480737B6200E000BF20
:10177C007B681B689A697B681B6822F070029A610F
:10178C007B681B6804225A607B6A002B08D07B683C
:10179C005A6A7B6A1A437B685A62786800F067F869
:1017AC0000BF2837BD4680BD80B483B000AF7860E1
:1017BC0000BF0C37BD4680BC704780B483B000AF0F
:1017CC00786000BF0C37BD4680BC704780B483B0D6
:1017DC0000AF786000BF0C37BD4680BC704780B44A
:1017EC0083B000AF786000BF0C37BD4680BC70473B
:1017FC0080B483B000AF786000BF0C37BD4680BCAE
:10180C00704780B483B000AF786000BF0C37BD4622
:10181C0080BC704780B483B000AF786000BF0C37D9
:10182C00BD4680BC704780B483B000AF786000BF09
:10183C000C37BD4680BC704780B483B000AF786075
:10184C0000BF0C37BD4680BC704780B483B000AF7E
:10185C00786000BF0C37BD4680BC704780B483B045
:10186C0000AF786000BF0C37BD4680BC704780B4B9
:10187C0083B000AF786000BF0C37BD4680BC7047AA
:10188C0080B485B000AF78607B6803F00703FB6021
:10189C000C4BDB68BB60BA684FF6FF031340BB60B0
:1018AC00FB681A02BB68134343F0BF6343F4003375
:1018BC00BB60044ABB68D36000BF1437BD4680BC14
:1018CC00704700BF00ED00E080B400AF044BDB6854
:1018DC001B0A03F007031846BD4680BC704700BFC7
:1018EC0000ED00E080B483B000AF0346FB7197F9C4
:1018FC000730002B0BDBFB7903F01F02064997F92D
:10190C0007305B09012000FA02F241F8232000BFE6
:10191C000C37BD4680BC704700E100E080B483B05A
:10192C0000AF03463960FB7197F90730002B0ADBD7
:10193C003B68DAB20C4997F907301201D2B20B446A
:10194C0083F800230AE03B68DAB20849FB7903F01C
:10195C000F03043B1201D2B20B441A7600BF0C37B2
:10196C00BD4680BC704700BF00E100E000ED00E028
:10197C0080B489B000AFF860B9607A60FB6803F09E
:10198C000703FB61FB69C3F10703042B28BF042386
:10199C00BB61FB690433062B02D9FB69033B00E0F6
:1019AC0000237B614FF0FF32BB6902FA03F3DA4389
:1019BC00BB681A407B699A404FF0FF317B6901FA92
:1019CC0003F3D9437B680B40134318462437BD46B9
:1019DC0080BC704780B582B000AF78607B68013BFB
:1019EC00B3F1807F01D301230FE00A4A7B68013BEE
:1019FC0053600F214FF0FF30FFF790FF054B002293
:101A0C009A60044B07221A60002318460837BD461B
:101A1C0080BD00BF10E000E080B582B000AF786000
:101A2C007868FFF72DFF00BF0837BD4680BD80B535
:101A3C0086B000AF0346B9607A60FB7300237B610C
:101A4C00FFF742FF78617A68B9687869FFF790FF11
:101A5C00024697F90F3011461846FFF75FFF00BF9B
:101A6C001837BD4680BD80B582B000AF0346FB7110
:101A7C0097F907301846FFF735FF00BF0837BD460A
:101A8C0080BD80B582B000AF78607868FFF7A2FFA8
:101A9C00034618460837BD4680BD000080B48BB0A5
:101AAC0000AF7860396000237B6200233B6269E100
:101ABC0001227B6A02FA03F3FB613B681B68FA693B
:101ACC001340BB61BA69FB699A4240F058813B688C
:101ADC005B689A4A93425ED0984A934275D8984A6A
:101AEC00934258D0964A93426FD8964A934252D01A
:101AFC00944A934269D8944A93424CD0924A934266
:101B0C0063D8924A934246D0904A93425DD8122BA6
:101B1C002AD8122B59D801A252F823F0A31B000883
:101B2C007D1B00088F1B0008D11B0008D71B000869
:101B3C00D71B0008D71B0008D71B0008D71B0008B1
:101B4C00D71B0008D71B0008D71B0008D71B0008A1
:101B5C00D71B0008D71B0008D71B0008D71B000891
:101B6C00851B0008991B0008794A934213D02CE07E
:101B7C003B68DB683B6229E03B68DB6804333B6213
:101B8C0024E03B68DB6808333B621FE03B68DB68A2
:101B9C000C333B621AE03B689B68002B02D1042398
:101BAC003B6213E03B689B68012B05D108233B6229
:101BBC007B68FA691A6109E008233B627B68FA6961
:101BCC005A6103E000233B6200E000BFBB69FF2BBE
:101BDC0001D87B6801E07B6804337B61BB69FF2B18
:101BEC0002D87B6A9B0002E07B6A083B9B003B614E
:101BFC007B691A680F213B6901FA03F3DB431A4036
:101C0C00396A3B6901FA03F31A437B691A603B6832
:101C1C005B6803F08053002B00F0B1804D4B9B6947
:101C2C004C4A43F0010393614A4B9B6903F0010357
:101C3C00BB60BB68484A7B6A9B08023352F823306E
:101C4C00FB607B6A03F003039B000F2202FA03F391
:101C5C00DB43FA681340FB607B68404A934213D025
:101C6C007B683F4A93420DD07B683E4A934207D033
:101C7C007B683D4A934201D1032306E0042304E030
:101C8C00022302E0012300E000237A6A02F003023F
:101C9C0092009340FA681343FB602F497B6A9B08C0
:101CAC000233FA6841F823203B685B6803F4801325
:101CBC00002B06D02D4B9A682C49BB6913438B60C3
:101CCC0006E02A4B9A68BB69DB43284913408B60BA
:101CDC003B685B6803F40013002B06D0234BDA68D7
:101CEC002249BB691343CB6006E0204BDA68BB6921
:101CFC00DB431E491340CB603B685B6803F4003345
:101D0C00002B06D0194B5A681849BB6913434B601A
:101D1C0006E0164B5A68BB69DB43144913404B6011
:101D2C003B685B6803F48033002B21D00F4B1A689F
:101D3C000E49BB6913430B6021E000BF0000321059
:101D4C0000003110000022100000211000001210C1
:101D5C00000011100010024000000140000801407A
:101D6C00000C01400010014000140140000401402F
:101D7C000B4B1A68BB69DB43094913400B607B6A48
:101D8C0001337B623B681A687B6A22FA03F3002BEF
:101D9C007FF48EAE00BF00BF2C37BD4680BC7047B1
:101DAC000004014080B485B000AF78600B467B80A6
:101DBC007B689A687B881340002B02D00123FB734D
:101DCC0001E00023FB73FB7B18461437BD4680BC37
:101DDC00704780B483B000AF78600B467B801346AD
:101DEC007B707B78002B03D07A887B681A6103E0C8
:101DFC007B881A047B681A6100BF0C37BD4680BC17
:101E0C007047000080B582B000AF0346FB80084BE2
:101E1C005A69FB881340002B06D0054AFB88536196
:101E2C00FB88184600F006F800BF0837BD4680BD99
:101E3C000004014080B483B000AF0346FB8000BFB8
:101E4C000C37BD4680BC704780B586B000AF78605B
:101E5C007B68002B01D1012372E27B681B6803F0C5
:101E6C000103002B00F08780924B5B6803F00C039E
:101E7C00042B0CD08F4B5B6803F00C03082B12D196
:101E8C008C4B5B6803F48033B3F5803F0BD1894BEB
:101E9C001B6803F40033002B6CD07B685B68002B51
:101EAC0068D101234CE27B685B68B3F5803F06D1B7
:101EBC00804B1B687F4A43F4803313602EE07B68B1
:101ECC005B68002B0CD17B4B1B687A4A23F4803364
:101EDC001360784B1B68774A23F4802313601DE052
:101EEC007B685B68B3F5A02F0CD1724B1B68714AF1
:101EFC0043F4802313606F4B1B686E4A43F48033AA
:101F0C0013600BE06B4B1B686A4A23F4803313603D
:101F1C00684B1B68674A23F4802313607B685B68FB
:101F2C00002B13D0FEF73EFE386108E0FEF73AFEB8
:101F3C0002463B69D31A642B01D9032300E25D4BA3
:101F4C001B6803F40033002BF0D014E0FEF72AFEDC
:101F5C00386108E0FEF726FE02463B69D31A642B73
:101F6C0001D90323ECE1534B1B6803F40033002B22
:101F7C00F0D100E000BF7B681B6803F00203002B6C
:101F8C0063D04C4B5B6803F00C03002B0BD0494B1C
:101F9C005B6803F00C03082B1CD1464B5B6803F405
:101FAC008033002B16D1434B1B6803F00203002B2C
:101FBC0005D07B681B69012B01D00123C0E13D4B8F
:101FCC001B6823F0F8027B685B69DB00394913431B
:101FDC000B603AE07B681B69002B20D0364B01224A
:101FEC001A60FEF7DFFD386108E0FEF7DBFD024604
:101FFC003B69D31A022B01D90323A1E12D4B1B689A
:10200C0003F00203002BF0D02A4B1B6823F0F802DC
:10201C007B685B69DB00274913430B6015E0264B9B
:10202C0000221A60FEF7BEFD386108E0FEF7BAFD2B
:10203C0002463B69D31A022B01D9032380E11D4BC5
:10204C001B6803F00203002BF0D17B681B6803F0C4
:10205C000803002B3AD07B689B69002B19D0174BD7
:10206C0001221A60FEF79EFD386108E0FEF79AFD2A
:10207C0002463B69D31A022B01D9032360E10D4BB5
:10208C005B6A03F00203002BF0D0012000F09CFAF5
:10209C001CE00A4B00221A60FEF784FD38610FE049
:1020AC00FEF780FD02463B69D31A022B08D90323A5
:1020BC0046E100BF00100240000042428004424250
:1020CC00924B5B6A03F00203002BE9D17B681B681F
:1020DC0003F00403002B00F0A6800023FB758B4B50
:1020EC00DB6903F08053002B0DD1884BDB69874AE9
:1020FC0043F08053D361854BDB6903F08053BB60A5
:10210C00BB680123FB75824B1B6803F48073002BA7
:10211C0018D17F4B1B687E4A43F480731360FEF723
:10212C0041FD386108E0FEF73DFD02463B69D31ADC
:10213C00642B01D9032303E1754B1B6803F48073F3
:10214C00002BF0D07B68DB68012B06D16F4B1B6A30
:10215C006E4A43F0010313622DE07B68DB68002BB1
:10216C000CD16A4B1B6A694A23F001031362674B5B
:10217C001B6A664A23F0040313621CE07B68DB686D
:10218C00052B0CD1614B1B6A604A43F004031362AC
:10219C005E4B1B6A5D4A43F0010313620BE05B4B21
:1021AC001B6A5A4A23F001031362584B1B6A574AA5
:1021BC0023F0040313627B68DB68002B15D0FEF759
:1021CC00F1FC38610AE0FEF7EDFC02463B69D31ADC
:1021DC0041F28832934201D90323B1E04B4B1B6A85
:1021EC0003F00203002BEED014E0FEF7DBFC3861A9
:1021FC000AE0FEF7D7FC02463B69D31A41F288325B
:10220C00934201D903239BE0404B1B6A03F002036A
:10221C00002BEED1FB7D012B05D13C4BDB693B4AFE
:10222C0023F08053D3617B68DB69002B00F087803F
:10223C00364B5B6803F00C03082B61D07B68DB69C1
:10224C00022B46D1334B00221A60FEF7ABFC3861EF
:10225C0008E0FEF7A7FC02463B69D31A022B01D912
:10226C0003236DE0294B1B6803F00073002BF0D1A6
:10227C007B681B6AB3F5803F08D1244B5B6823F461
:10228C0000327B689B68214913434B601F4B5B6892
:10229C0023F474127B68196A7B685B6A0B431B49D5
:1022AC0013434B601B4B01221A60FEF77BFC386119
:1022BC0008E0FEF777FC02463B69D31A022B01D9E2
:1022CC0003233DE0114B1B6803F00073002BF0D08F
:1022DC0035E0104B00221A60FEF764FC386108E010
:1022EC00FEF760FC02463B69D31A022B01D903238B
:1022FC0026E0064B1B6803F00073002BF0D11EE0A8
:10230C007B68DB69012B07D1012319E00010024027
:10231C0000700040600042420B4B5B68FB60FB6846
:10232C0003F480327B681B6A9A4206D1FB6803F483
:10233C0070127B685B6A9A4201D0012300E0002393
:10234C0018461837BD4680BD0010024080B584B0D9
:10235C0000AF786039607B68002B01D10123D0E09D
:10236C006A4B1B6803F007033A689A4210D9674B13
:10237C001B6823F0070265493B6813430B60634BF2
:10238C001B6803F007033A689A4201D00123B8E0B6
:10239C007B681B6803F00203002B20D07B681B6852
:1023AC0003F00403002B05D0594B5B68584A43F4E7
:1023BC00E06353607B681B6803F00803002B05D0B7
:1023CC00534B5B68524A43F460535360504B5B6809
:1023DC0023F0F0027B689B684D4913434B607B688C
:1023EC001B6803F00103002B40D07B685B68012B5A
:1023FC0007D1474B1B6803F40033002B15D1012385
:10240C007FE07B685B68022B07D1414B1B6803F0B4
:10241C000073002B09D1012373E03D4B1B6803F0C3
:10242C000203002B01D101236BE0394B5B6823F0D5
:10243C0003027B685B68364913434B60FEF7B2FBC3
:10244C00F8600AE0FEF7AEFB0246FB68D31A41F2D5
:10245C008832934201D9032353E02D4B5B6803F080
:10246C000C027B685B689B009A42EBD1274B1B6884
:10247C0003F007033A689A4210D2244B1B6823F0EE
:10248C00070222493B6813430B60204B1B6803F087
:10249C0007033A689A4201D0012332E07B681B683B
:1024AC0003F00403002B08D0194B5B6823F4E062A3
:1024BC007B68DB68164913434B607B681B6803F031
:1024CC000803002B09D0124B5B6823F460527B6825
:1024DC001B69DB000E4913434B6000F021F80246E8
:1024EC000B4B5B681B0903F00F030A49CB5C22FA08
:1024FC0003F3094A1360094B1B681846FEF710FBDF
:10250C00002318461037BD4680BD00BF0020024096
:10251C0000100240E83500080000002004000020F4
:10252C0080B487B000AF0023FB600023BB600023A6
:10253C007B6100237B6000233B611E4B5B68FB606F
:10254C00FB6803F00C03042B02D0082B03D027E00C
:10255C00194B3B6127E0FB689B0C03F00F03174AF8
:10256C00D35C7B60FB6803F48033002B10D0114BE1
:10257C005B685B0C03F00103114AD35CBB607B68A6
:10258C000D4A03FB02F2BB68B2FBF3F37B6104E080
:10259C007B680C4A02FB03F37B617B693B6102E0C5
:1025AC00054B3B6100BF3B6918461C37BD4680BCE0
:1025BC00704700BF0010024000127A00F835000886
:1025CC000836000800093D0080B485B000AF786083
:1025DC000A4B1B680A4AA2FB03235B0A7A6802FBBC
:1025EC0003F3FB6000BFFB685A1EFA60002BF9D1A5
:1025FC0000BF00BF1437BD4680BC704700000020F0
:10260C00D34D621080B582B000AF78607B68002B30
:10261C0001D1012341E07B6893F83D30DBB2002B04
:10262C0006D17B68002283F83C207868FEF78AF993
:10263C007B68022283F83D207B681A687B68043330
:10264C001946104600F020FC7B68012283F84620D6
:10265C007B68012283F83E207B68012283F83F20AF
:10266C007B68012283F840207B68012283F841209B
:10267C007B68012283F842207B68012283F8432087
:10268C007B68012283F844207B68012283F8452073
:10269C007B68012283F83D20002318460837BD468D
:1026AC0080BD000080B485B000AF78607B6893F883
:1026BC003D30DBB2012B01D001233AE07B680222D2
:1026CC0083F83D207B681B68DA687B681B6842F0E6
:1026DC000102DA607B681B68184A93420ED07B6853
:1026EC001B68B3F1804F09D07B681B68144A934276
:1026FC0004D07B681B68134A934211D17B681B681A
:10270C009B6803F00703FB60FB68062B10D07B680B
:10271C001B681A687B681B6842F001021A6007E0AC
:10272C007B681B681A687B681B6842F001021A60A0
:10273C00002318461437BD4680BC7047002C01405E
:10274C00000400400008004080B582B000AF786003
:10275C007B68002B01D1012341E07B6893F83D306D
:10276C00DBB2002B06D17B68002283F83C20786812
:10277C0000F039F87B68022283F83D207B681A68E8
:10278C007B6804331946104600F07EFB7B680122FF
:10279C0083F846207B68012283F83E207B68012267
:1027AC0083F83F207B68012283F840207B6801225C
:1027BC0083F841207B68012283F842207B68012248
:1027CC0083F843207B68012283F844207B68012234
:1027DC0083F845207B68012283F83D2000231846AE
:1027EC000837BD4680BD80B483B000AF786000BFB1
:1027FC000C37BD4680BC704780B584B000AF7860A4
:10280C0039603B68002B09D17B6893F83E30DBB212
:10281C00012B14BF01230023DBB222E03B68042B05
:10282C0009D17B6893F83F30DBB2012B14BF012335
:10283C000023DBB215E03B68082B09D17B6893F8C9
:10284C004030DBB2012B14BF01230023DBB208E0C4
:10285C007B6893F84130DBB2012B14BF01230023BA
:10286C00DBB2002B01D001235EE03B68002B04D1CE
:10287C007B68022283F83E2013E03B68042B04D1D2
:10288C007B68022283F83F200BE03B68082B04D1C5
:10289C007B68022283F8402003E07B68022283F8E5
:1028AC0041207B681B6801223968184600F078FDCE
:1028BC007B681B681E4A934207D17B681B685A6C65
:1028CC007B681B6842F400425A647B681B68184A98
:1028DC0093420ED07B681B68B3F1804F09D07B68A4
:1028EC001B68144A934204D07B681B68124A9342BB
:1028FC0011D17B681B689B6803F00703FB60FB68C6
:10290C00062B10D07B681B681A687B681B6842F02A
:10291C0001021A6007E07B681B681A687B681B68F9
:10292C0042F001021A60002318461037BD4680BDE4
:10293C00002C0140000400400008004080B584B029
:10294C0000AF78607B681B68DB68FB607B681B688A
:10295C001B69BB60BB6803F00203002B20D0FB6833
:10296C0003F00203002B1BD07B681B686FF0020284
:10297C001A617B6801221A777B681B689B6903F0DC
:10298C000303002B03D0786800F063FA05E0786845
:10299C0000F056FA786800F065FA7B6800221A7726
:1029AC00BB6803F00403002B20D0FB6803F0040386
:1029BC00002B1BD07B681B686FF004021A617B68CC
:1029CC0002221A777B681B689B6903F44073002B07
:1029DC0003D0786800F03DFA05E0786800F030FA32
:1029EC00786800F03FFA7B6800221A77BB6803F026
:1029FC000803002B20D0FB6803F00803002B1BD02E
:102A0C007B681B686FF008021A617B6804221A77D6
:102A1C007B681B68DB6903F00303002B03D0786829
:102A2C0000F017FA05E0786800F00AFA786800F010
:102A3C0019FA7B6800221A77BB6803F01003002B8D
:102A4C0020D0FB6803F01003002B1BD07B681B68A5
:102A5C006FF010021A617B6808221A777B681B687A
:102A6C00DB6903F44073002B03D0786800F0F1F9B4
:102A7C0005E0786800F0E4F9786800F0F3F97B6819
:102A8C0000221A77BB6803F00103002B0CD0FB6803
:102A9C0003F00103002B07D07B681B686FF0010269
:102AAC001A61786800F0C3F9BB6803F08003002B4F
:102ABC000CD0FB6803F08003002B07D07B681B68ED
:102ACC006FF080021A61786800F046FDBB6803F075
:102ADC004003002B0CD0FB6803F04003002B07D005
:102AEC007B681B686FF040021A61786800F0C3F9CC
:102AFC00BB6803F02003002B0CD0FB6803F0200311
:102B0C00002B07D07B681B686FF020021A61786875
:102B1C0000F019FD00BF1037BD4680BD80B586B0F2
:102B2C0000AFF860B9607A600023FB75FB6893F81E
:102B3C003C30012B01D10223AEE0FB68012283F86B
:102B4C003C207B680C2B00F29F8001A252F823F0F2
:102B5C00912B0008952C0008952C0008952C00084A
:102B6C00D12B0008952C0008952C0008952C0008FA
:102B7C00132C0008952C0008952C0008952C0008A7
:102B8C00532C0008FB681B68B968184600F0EAF97A
:102B9C00FB681B689A69FB681B6842F008029A6123
:102BAC00FB681B689A69FB681B6822F004029A6137
:102BBC00FB681B689969BB681A69FB681B680A4348
:102BCC009A6164E0FB681B68B968184600F030FA3B
:102BDC00FB681B689A69FB681B6842F400629A6187
:102BEC00FB681B689A69FB681B6822F480629A6117
:102BFC00FB681B689969BB681B691A02FB681B6838
:102C0C000A439A6143E0FB681B68B968184600F0F8
:102C1C0079FAFB681B68DA69FB681B6842F00802EA
:102C2C00DA61FB681B68DA69FB681B6822F0040236
:102C3C00DA61FB681B68D969BB681A69FB681B6899
:102C4C000A43DA6123E0FB681B68B968184600F098
:102C5C00C3FAFB681B68DA69FB681B6842F4006204
:102C6C00DA61FB681B68DA69FB681B6822F4806216
:102C7C00DA61FB681B68D969BB681B691A02FB68BF
:102C8C001B680A43DA6102E00123FB7500BFFB6895
:102C9C00002283F83C20FB7D18461837BD4680BDCA
:102CAC0080B584B000AF786039600023FB737B681B
:102CBC0093F83C30012B01D10223B4E07B68012254
:102CCC0083F83C207B68022283F83D207B681B68DC
:102CDC009B68BB60BB6823F07703BB60BB6823F4C5
:102CEC007F43BB607B681B68BA689A603B681B6853
:102CFC00B3F5005F3ED0B3F5005F00F28780B3F50B
:102D0C00805F00F08680B3F5805F7FD8702B1AD07F
:102D1C00702B7BD8602B50D0602B77D8502B3CD0AD
:102D2C00502B73D8402B58D0402B6FD8302B64D0FD
:102D3C00302B6BD8202B60D0202B67D8002B5CD08D
:102D4C00102B5AD062E07B6818683B6899683B6826
:102D5C005A683B68DB6800F004FB7B681B689B6867
:102D6C00BB60BB6843F07703BB607B681B68BA68C9
:102D7C009A604FE07B6818683B6899683B685A68B2
:102D8C003B68DB6800F0EDFA7B681B689A687B682F
:102D9C001B6842F480429A603CE07B6818683B6890
:102DAC0059683B68DB681A4600F064FA7B681B685C
:102DBC005021184600F0BBFA2CE07B6818683B6881
:102DCC0059683B68DB681A4600F082FA7B681B681E
:102DDC006021184600F0ABFA1CE07B6818683B6871
:102DEC0059683B68DB681A4600F044FA7B681B683C
:102DFC004021184600F09BFA0CE07B681A683B688F
:102E0C001B681946104600F092FA03E00123FB738D
:102E1C0000E000BF7B68012283F83D207B68002224
:102E2C0083F83C20FB7B18461037BD4680BD80B430
:102E3C0083B000AF786000BF0C37BD4680BC7047D4
:102E4C0080B483B000AF786000BF0C37BD4680BC47
:102E5C00704780B483B000AF786000BF0C37BD46BC
:102E6C0080BC704780B483B000AF786000BF0C3773
:102E7C00BD4680BC704780B483B000AF786000BFA3
:102E8C000C37BD4680BC704780B485B000AF78600D
:102E9C0039607B681B68FB607B682F4A93420BD0C0
:102EAC007B68B3F1804F07D07B682C4A934203D0E8
:102EBC007B682B4A934208D1FB6823F07003FB60BC
:102ECC003B685B68FA681343FB607B68224A934259
:102EDC000BD07B68B3F1804F07D07B681F4A9342BD
:102EEC0003D07B681E4A934208D1FB6823F44073DD
:102EFC00FB603B68DB68FA681343FB60FB6823F0FC
:102F0C0080023B685B691343FB607B68FA681A605C
:102F1C003B689A687B68DA623B681A687B689A62DD
:102F2C007B680D4A934203D13B681A697B681A632C
:102F3C007B6801225A617B681B6903F00103002B3B
:102F4C0005D07B681B6923F001027B681A6100BF06
:102F5C001437BD4680BC7047002C01400004004073
:102F6C000008004080B487B000AF786039607B689F
:102F7C001B6A7B617B681B6A23F001027B681A6207
:102F8C007B685B683B617B689B69FB60FB6823F03B
:102F9C007003FB60FB6823F00303FB603B681B685A
:102FAC00FA681343FB607B6923F002037B613B6887
:102FBC009B687A6913437B617B681C4A93420CD1F2
:102FCC007B6923F008037B613B68DB687A691343F8
:102FDC007B617B6923F004037B617B68134A93421A
:102FEC0011D13B6923F480733B613B6923F400737B
:102FFC003B613B685B693A6913433B613B689B6986
:10300C003A6913433B617B683A695A607B68FA689A
:10301C009A613B685A687B685A637B687A691A6262
:10302C0000BF1C37BD4680BC704700BF002C014060
:10303C0080B487B000AF786039607B681B6A7B61B5
:10304C007B681B6A23F010027B681A627B685B68E2
:10305C003B617B689B69FB60FB6823F4E043FB608E
:10306C00FB6823F44073FB603B681B681B02FA6827
:10307C001343FB607B6923F020037B613B689B68F7
:10308C001B017A6913437B617B681D4A93420DD106
:10309C007B6923F080037B613B68DB681B017A69E9
:1030AC0013437B617B6923F040037B617B68144A8B
:1030BC00934213D13B6923F480633B613B6923F456
:1030CC0000633B613B685B699B003A6913433B615E
:1030DC003B689B699B003A6913433B617B683A6987
:1030EC005A607B68FA689A613B685A687B689A6395
:1030FC007B687A691A6200BF1C37BD4680BC70477A
:10310C00002C014080B487B000AF786039607B68D8
:10311C001B6A7B617B681B6A23F480727B681A6272
:10312C007B685B683B617B68DB69FB60FB6823F059
:10313C007003FB60FB6823F00303FB603B681B68B8
:10314C00FA681343FB607B6923F400737B613B6873
:10315C009B681B027A6913437B617B681D4A93420F
:10316C000DD17B6923F400637B613B68DB681B0238
:10317C007A6913437B617B6923F480637B617B6891
:10318C00144A934213D13B6923F480533B613B694E
:10319C0023F400533B613B685B691B013A691343A1
:1031AC003B613B689B691B013A6913433B617B683C
:1031BC003A695A607B68FA68DA613B685A687B68DE
:1031CC00DA637B687A691A6200BF1C37BD4680BC23
:1031DC00704700BF002C014080B487B000AF78600E
:1031EC0039607B681B6A3B617B681B6A23F48052E5
:1031FC007B681A627B685B687B617B68DB69FB6060
:10320C00FB6823F4E043FB60FB6823F44073FB6032
:10321C003B681B681B02FA681343FB603B6923F491
:10322C0000533B613B689B681B033A6913433B614A
:10323C007B680F4A934209D17B6923F480437B61FD
:10324C003B685B699B017A6913437B617B687A6994
:10325C005A607B68FA68DA613B685A687B681A6462
:10326C007B683A691A6200BF1C37BD4680BC704748
:10327C00002C014080B487B000AFF860B9607A6070
:10328C00FB681B6A7B61FB681B6A23F00102FB680D
:10329C001A62FB689B693B613B6923F0F0033B615D
:1032AC007B681B013A6913433B617B6923F00A037A
:1032BC007B617A69BB6813437B61FB683A699A61ED
:1032CC00FB687A691A6200BF1C37BD4680BC704728
:1032DC0080B487B000AFF860B9607A60FB681B6A95
:1032EC007B61FB681B6A23F01002FB681A62FB68A7
:1032FC009B693B613B6923F470433B617B681B0317
:10330C003A6913433B617B6923F0A0037B61BB6883
:10331C001B017A6913437B61FB683A699A61FB680C
:10332C007A691A6200BF1C37BD4680BC704780B4F6
:10333C0085B000AF786039607B689B68FB60FB6888
:10334C0023F07003FB603A68FB68134343F00703F8
:10335C00FB607B68FA689A6000BF1437BD4680BC7E
:10336C00704780B487B000AFF860B9607A603B609A
:10337C00FB689B687B617B6923F47F437B613B68C3
:10338C001A027B681A43BB6813437A6913437B6147
:10339C00FB687A699A6000BF1C37BD4680BC7047D9
:1033AC0080B487B000AFF860B9607A60BB6803F096
:1033BC001F03012202FA03F37B61FB681A6A7B6923
:1033CC00DB431A40FB681A62FB681A6ABB6803F09D
:1033DC001F03796801FA03F31A43FB681A6200BFF2
:1033EC001C37BD4680BC704780B485B000AF786098
:1033FC0039607B6893F83C30012B01D1022346E005
:10340C007B68012283F83C207B68022283F83D20F4
:10341C007B681B685B68FB607B681B689B68BB6098
:10342C00FB6823F07003FB603B681B68FA6813436E
:10343C00FB607B681B68FA685A607B681B68164ADD
:10344C0093420ED07B681B68B3F1804F09D07B6828
:10345C001B68124A934204D07B681B68104A934243
:10346C000CD1BB6823F08003BB603B685B68BA6817
:10347C001343BB607B681B68BA689A607B68012247
:10348C0083F83D207B68002283F83C2000231846FB
:10349C001437BD4680BC7047002C0140000400402E
:1034AC000008004080B485B000AF7860396000231C
:1034BC00FB607B6893F83C30012B01D102233DE08B
:1034CC007B68012283F83C20FB6823F0FF023B68F9
:1034DC00DB681343FB60FB6823F440723B689B681A
:1034EC001343FB60FB6823F480623B685B68134307
:1034FC00FB60FB6823F400623B681B681343FB60B2
:10350C00FB6823F480523B681B691343FB60FB6828
:10351C0023F400523B685B691343FB60FB6823F4A4
:10352C0080423B68DB691343FB607B681B68FA686D
:10353C005A647B68002283F83C2000231846143719
:10354C00BD4680BC704780B483B000AF786000BFCC
:10355C000C37BD4680BC704780B483B000AF786038
:10356C0000BF0C37BD4680BC7047034602449342F3
:10357C0000D1704703F8011BF9E7000070B5002675
:10358C000C4D0D4C641BA410A64209D100F01AF886
:10359C0000260A4D0A4C641BA410A64205D170BD2E
:1035AC0055F8043B98470136EEE755F8043B98472D
:1035BC000136F2E70C3600080C3600080C36000811
:1035CC0010360008F8B500BFF8BC08BC9E46704722
:0C35DC00F8B500BFF8BC08BC9E46704764
:1035E80000000000000000000102030406070809AB
:1035F80002030405060708090A0B0C0D0E0F10102C
:0436080001020000BB
:04360C003101000880
:043610000D010008A0
:0C36140000127A0010000000010000000D
:0400000508000AB530
:00000001FF
